:020000040800F2
:1000000000280020D1030008210400082104000872
:100010002104000821040008210400080000000059
:1000200000000000000000000000000021040008A3
:100030002104000800000000210400082104000839
:1000400021040008210400082104000821040008FC
:1000500021040008210400082104000821040008EC
:1000600021040008210400082104000821040008DC
:1000700021040008210400082104000821040008CC
:1000800021040008210400082104000821040008BC
:1000900021040008210400082104000821040008AC
:1000A000210400082104000821040008210400089C
:1000B000210400082104000821040008210400088C
:1000C000210400082104000821040008210400087C
:1000D000210400082104000821040008210400086C
:1000E0002104000821040008000000002104000889
:1000F000210400082104000821040008210400084C
:10010000210400082104000821040008210400083B
:10011000210400082104000821040008210400082B
:10012000210400082104000821040008210400081B
:1001300010B5054C237833B9044B13B10448AFF321
:1001400000800123237010BD000200200000000089
:100150006C04000808B5034B1BB103490348AFF317
:10016000008008BD00000000040200206C040008AC
:1001700080B400AF234B5B69224A43F00103536113
:10018000214B224A9A60204B214ADA601E4B4FF4E1
:1001900080725A601C4B00221A601B4B1B681A4A63
:1001A00023F440631360184B1B68174A43F48063C1
:1001B0001360154B1B68144A23F440731360124BF1
:1001C0001B68114A43F4807313600F4B1B680E4A7F
:1001D00043F0200313600C4B1B680B4A43F01003E1
:1001E0001360094B1B68084A43F080031360064BF9
:1001F0001B68054A43F00103136000BFBD4680BC85
:10020000704700BF001002401C0002403800004050
:100210000000002080B400AF234BDB69224A43F08A
:100220000103D3614FF0804340F27F229A624FF086
:100230008043FF22DA624FF0804301229A634FF03D
:1002400080431B6A4FF0804243F0100313624FF06B
:1002500080431B6A4FF0804223F0200313624FF06B
:1002600080439B694FF0804243F4D04393614FF049
:1002700080431B684FF0804223F0100313604FF05F
:100280008043DB684FF0804243F48073D3604FF0CB
:1002900080431B684FF0804243F00103136000BFAE
:1002A000BD4680BC704700BF0010024080B400AF64
:1002B0002E4B1B682D4A43F00103136000BF2B4BEC
:1002C0001B6803F00203002BF9D0294B1B68284A56
:1002D00043F010031360264B1B68254A23F00703E5
:1002E0001360234B1B68224A43F0040313601F4B27
:1002F0001E4A5B6853601D4B1C4A5B6853601B4B76
:100300005B681A4A43F480635360184B5B68174A72
:1003100023F480335360154B5B68144A43F4601335
:100320005360124B1B68114A43F08073136000BF87
:100330000E4B1B6803F00073002BF9D00B4B5B686E
:100340000A4A23F003035360084B5B68074A43F0F3
:100350000203536000BF054B5B6803F00C03082BDE
:10036000F9D100BF00BFBD4680BC704700100240FD
:100370000020024080B400AF0D4B9B690C4A43F053
:10038000050393610B4B1B680A4A23F0C0031360FB
:10039000084B1B68074A43F080031360054B1B683A
:1003A000044A43F03003136000BFBD4680BC704771
:1003B000001002400008014080B500AFFFF776FF53
:1003C000FFF728FFFFF7D6FFFFF7D2FEFEE700009A
:1003D0000D488546AFF300800C480D490D4A0023B7
:1003E00002E0D458C4500433C4188C42F9D30A4AEA
:1003F0000A4C002301E013600432A242FBD300F058
:1004000011F8FFF7D9FFFEE70028002000000020C8
:10041000000200208C040008000200201C020020C2
:10042000FEE7000070B500260C4D0D4C641BA410B7
:10043000A64209D100F01AF800260A4D0A4C641BA6
:10044000A410A64205D170BD55F8043B984701366B
:10045000EEE755F8043B98470136F2E784040008BC
:10046000840400088404000888040008F8B500BF6C
:10047000F8BC08BC9E467047F8B500BFF8BC08BC85
:040480009E467047DD
:040484005501000816
:040488003101000836
:10048C0080008300860089008C008F00920095000C
:10049C0099009C009F00A200A500A800AB00AE0034
:1004AC00B100B400B600B900BC00BF00C200C4006B
:1004BC00C700C900CC00CE00D100D300D600D800B4
:1004CC00DA00DC00DF00E100E300E500E700E80013
:1004DC00EA00EC00EE00EF00F100F200F300F50092
:1004EC00F600F700F800F900FA00FB00FC00FD0034
:1004FC00FD00FE00FE00FF00FF00FF00FF00FF00FC
:10050C00FF00FF00FF00FF00FF00FE00FE00FD00EB
:10051C00FD00FC00FB00FB00FA00F900F800F700FE
:10052C00F500F400F300F100F000EE00ED00EB003C
:10053C00E900E800E600E400E200E000DE00DB0099
:10054C00D900D700D500D200D000CD00CB00C80018
:10055C00C600C300C000BE00BB00B800B500B200AE
:10056C00AF00AC00A900A600A300A0009D009A005B
:10057C009700940091008E008B008800840081000D
:10058C007E007B007800750072006E006B006800C6
:10059C00650062005F005C0059005600530050007B
:1005AC004D004A004700450042003F003C003A0025
:1005BC003700340032002F002D002B0028002600BD
:1005CC002400220020001D001B001A001800160039
:1005DC001400120011000F000E000C000B000A009A
:1005EC0009000700060005000400040003000200D7
:1005FC0002000100010000000000000000000000EB
:10060C0000000000000000000000010001000200DA
:10061C0002000300040005000600070008000900A2
:10062C000A000B000D000E00100011001300150045
:10063C00160018001A001C001E00200022002400C6
:10064C00270029002B002E00300033003500380025
:10065C003A003D0040004300450048004B004E006E
:10066C005100540057005A005D00600063006600A2
:10067C0069006C006F007300760079007C007F00CD
:04000005080003D11B
:00000001FF
